:100974000600000000FA00006400000C0000010002
:20F800000A1209120812071206120512041231800600814D0400C2436A090743054309435A
:20F820000A430C936D24044C3640DC050B4A0B5B1F4104004F935F203840A005085B3B90D9
:20F8400012000220364058023B90460002203640C8003E401C020F4B0F5F0F5E2C4F0F4B8D
:20F860001F530F5F0E5F2D4EB01260FE884C00003A901600112CF290200001020D243E405B
:20F8800024090E5B0F4C2F8E0F9302343FE31F53884F00008E4C000005932F205F42110202
:20F8A0000F9A2B2C084A08583850A0052698032807930620223C07930320814A020017437E
:20F8C0003F401C020E4B0E5E0E5F2C4E1B530B5B0B5F2D4BB0127CFD884C00000C9902284B
:20F8E000094C0B3C0F4A1F8102001F83814F000007431543023C8B4362071A53148396232B
:20F900000793052005930720B24318024A3C1A810200814A000082491A021A4102004A4A94
:20F9200012C30910284188113890FDFF2038464A065806563740A005075608930F343E409C
:20F940001C020F460F5F0F5E2C4F0F461F530F5F0E5F2D4EB0127CFD874C00008799000093
:20F9600006282683278318833890FDFFE637485A0F480F5F1E4FA2051F4FA005098F095902
:20F980000E8F3D424F434F5F0E99022C098E5F5309591D83F823484888104F4F08DF824859
:20F9A0001802315006003040F0FE0F120E120D120C120B12D2C37A09C29314023B201B4371
:20F9C0001C422E021D422C02B01260FE1C927E091A281F422E020F110F111F822C021F9323
:20F9E00002383F43013C1F43C293800907245E4280098E110F9E02240B43023C825F7C0916
:20FA0000C24F80090F3CB25014007C09B2902D017C090628B280C8007C0912C312107E0946
:20FA2000C24380090B933C20D2431402B2401E3F6C09363CD29314023120F2900300720911
:20FA40000624C29372091924D2837209163CF2902000010212241C422E021D422C02B01295
:20FA600060FE829C78090528824C780992537409043CE243720992837409E29372090B241A
:20FA8000C29372090D20E2431402E2D37A09B2408010D001053CD2430102023C8243F00156
:20FAA000F29003007209062C5C4207025D427209B01200F892427C09F001E293140212288A
:20FAC000D2D3E001D2C3E001D2B37A091020B2407706A6013C403C00B0120EFFB2407701EB
:20FAE000A601053C5C43B0120AFBA2C29201A2D29201D2427009E001B1C0F0000A003B4165
:20FB00003C413D413E413F410013D2D37A09F290400001023924D292070276093A24D24230
:20FB2000070276095F4207023F800B005D43C29372090C20F290200001020424B2405838DE
:20FB40005009073CB240584C5009033CB240582450093B40F84F4E4D0E5E3E5050093FB075
:20FB600080FF0B200F5F0F5F0F5F3F50004C8E4F00005D53C24D73090C3C2E538E4BFEFFFF
:20FB80005D533F807F00EB3FB24040205009D24373094C930B24B2408610A201F290400016
:20FBA00001020D24B2401E3F6C09093CB2408E10A201B2401E006C09B2407706A6015F4299
:20FBC00073090F9306243E405009B24EA4011F83FC2392426C09A001C293140205244C9343
:20FBE0000324B2D01000A2019243AE01A243AE0130410A12B240805A2001E242E001D243FD
:20FC0000E201F24040000102F2403C000702C2430002D2430502C2431102B24000010202E3
:20FC2000F2400300C201B2400002A601B2400006A601B2401C02B0013F400700824FB201C7
:20FC4000B2407701A601B24000019001824F92010A43023C32D058005F4201020A9F202435
:20FC60005A4201020F4A3F80100018243F80100015243F8020000D20C2431402E2427209B3
:20FC8000B2401E186C0992427C09F0015C43B0120AFBE2427009E2C3E001023CE2D3E00120
:20FCA000C2937A09D72732D01800D63F0F125F4283090F9315241F8326241F832920B290FD
:20FCC00016006E09072C1F426E09DF42C101000292536E09D28371091B20C2438309183C5C
:20FCE0005F42C101824F6E09D2438309D24F0002C0013F9006000C20F2402400E001B240AA
:20FD00000300D801053CD242C1017109E2438309F2D01000C201F2D02000C201B1C0F0002A
:20FD200002003F4100130F120E120D120C120B12924202029001E29301020320D2838209AF
:20FD40000E24D2B37A091120B2407706A6013C403C00B0120EFFB2407701A601063CD24234
:20FD6000050282095C43B0120AFBB1C0F0000A003B413C413D413E413F4100130A121D93CB
:20FD800003343DE31D53023C3CE31C530E4D0F4C0E110F110B430C4E0D4BB01234FE0A4C91
:20FDA0000C4F0D4BB01234FE1F9303340E8C0F5A023C0E5C0F8A1B532B92ED3B0C4E3A4147
:20FDC00030410F120E120D120C120B12E2B3E0011224D242E0017009E2C3E001A2C2920180
:20FDE0004C43F2902000010201245C43B0120AFBB1C0F0000A003B413C413D413E413F4163
:20FE000000130F12C243830992536E09B290A0036E09032882436E09053C1F426E09D24FC4
:20FE20000002C001F2D02000C201B1C0F00002003F4100133DF00F003DE00F000D5D005D35
:20FE40000C110C110C110C110C110C110C110C110C110C110C110C110C110C110C1130417E
:20FE60001C9302343CE31C530F4C1D9302343DE31D530C4D0C9F032C0E4C0C4F0F4E12C324
:20FE80000F100F110C5F30410F12B2F0EFFFA2013F4000281F527409824FA001B1C0F0008B
:20FEA00002003F4100139242DA010A028243D801E242E001B1C0F000000000133140000A60
:20FEC000B0121CFF0C43B012F2FBB01220FFE2C37A099242D2011602B1C0F000000000130B
:20FEE000D2D3E001E2C2E001B1C0F000000000133441354136413741384139413A413041CA
:20FF0000B2407701A601B1C0F000000000131C830343FD23304132D01000FD3F1C433041C8
:06FF20000343FF3F001344
:02FFE00002FE1F
:02FFE200ACFC75
:02FFE40024FFF8
:02FFE600A6FE75
:02FFE800C2FD58
:02FFEC0016FFFE
:02FFEE00AAF96E
:02FFF00088FE89
:02FFF20000FF0E
:02FFF400E0FE2D
:02FFF800CEFE3B
:02FFFA0026FDE2
:02FFFC0016FFEE
:02FFFE00BCFE47
:00000001FF
