:100974000600000000FA00006400000C0000010002
:20F800000A1209120812071206120512041231800C00814D0800C2436A0905438143020020
:20F8200009430A430C938524814C00003440DC05084A08581F4108004F9366203B40A00523
:20F840000B58389012000220344058023890460002203440C8003E401C020F480F5F0F5E41
:20F860002C4F0F481F530F5F0E5F2D4EB01296FE8B4C00003A901600112CF29020000102FF
:20F880000D243E4024090E580F4C2F8E0F9302343FE31F538B4F00008E4C00003F401C0251
:20F8A000064816530656065F07480757075F8193020035205F4211020F9A312C0F4A0F5FD1
:20F8C0003F50A005814F0A00249F032805930620263C05930320814A060015432C472D4642
:20F8E000B012B2FD1F410A008F4C00000C990228094C153C0F4A1F8106001F83814F040068
:20F900000543914302000B3C884362073F401C02064816530656065F07480757075F12C351
:20F92000081087480000864800001A53918300007F2305930620819302000720B2431802E5
:20F940004B3C1A810600814A040082491A021A4106004A4A12C30910184104008811389028
:20F96000FDFF2038464A065806563740A005075608930F343E401C020F460F5F0F5E2C4F4B
:20F980000F461F530F5F0E5F2D4EB012B2FD874C0000879900000628268327831883389002
:20F9A000FDFFE637485A0F480F5F1E4FA2051F4FA005098F09590E8F3D424F434F5F0E99A3
:20F9C000022C098E5F5309591D83F823484888104F4F08DF8248180231500C00304026FFE0
:20F9E0000F120E120D120C120B12D2C37A09C29314023B201B431C422E021D422C02B01253
:20FA000096FE1C927E091A281F422E020F110F111F822C021F9302383F43013C1F43C293D9
:20FA2000800907245E4280098E110F9E02240B43023C825F7C09C24F80090F3CB25014008A
:20FA40007C09B2902D017C090628B280C8007C0912C312107E09C24380090B933C20D24364
:20FA60001402B2401E3F6C09363CD29314023120F290030072090624C29372091924D283E2
:20FA80007209163CF2902000010212241C422E021D422C02B01296FE829C78090528824CB3
:20FAA000780992537409043CE243720992837409E29372090B24C29372090D20E24314029A
:20FAC000E2D37A09B2408010D001053CD2430102023C8243F001F29003007209062C5C427E
:20FAE00007025D427209B01200F892427C09F001E29314021228D2D3E001D2C3E001D2B399
:20FB00007A091020B2407706A6013C403C00B01244FFB2407701A601053C5C43B01240FB71
:20FB2000A2C29201A2D29201D2427009E001B1C0F0000A003B413C413D413E413F41001365
:20FB4000D2D37A09F290400001023924D292070276093A24D242070276095F4207023F800C
:20FB60000B005D43C29372090C20F290200001020424B24058385009073CB240584C500904
:20FB8000033CB240582450093B40F84F4E4D0E5E3E5050093FB080FF0B200F5F0F5F0F5FCC
:20FBA0003F50004C8E4F00005D53C24D73090C3C2E538E4BFEFF5D533F807F00EB3FB240A9
:20FBC00040205009D24373094C930B24B2408610A201F290400001020D24B2401E3F6C09E8
:20FBE000093CB2408E10A201B2401E006C09B2407706A6015F4273090F9306243E40500932
:20FC0000B24EA4011F83FC2392426C09A001C293140205244C930324B2D01000A2019243F0
:20FC2000AE01A243AE0130410A12B240805A2001E242E001D243E201F24040000102F24063
:20FC40003C000702C2430002D2430502C2431102B24000010202F2400300C201B240000241
:20FC6000A601B2400006A601B2401C02B0013F400700824FB201B2407701A601B24000016F
:20FC80009001824F92010A43023C32D058005F4201020A9F20245A4201020F4A3F80100032
:20FCA00018243F80100015243F8020000D20C2431402E2427209B2401E186C0992427C0944
:20FCC000F0015C43B01240FBE2427009E2C3E001023CE2D3E001C2937A09D72732D01800B0
:20FCE000D63F0F125F4283090F9315241F8326241F832920B29016006E09072C1F426E0915
:20FD0000DF42C101000292536E09D28371091B20C2438309183C5F42C101824F6E09D243F3
:20FD20008309D24F0002C0013F9006000C20F2402400E001B2400300D801053CD242C10136
:20FD40007109E2438309F2D01000C201F2D02000C201B1C0F00002003F4100130F120E1207
:20FD60000D120C120B12924202029001E29301020320D28382090E24D2B37A091120B240E8
:20FD80007706A6013C403C00B01244FFB2407701A601063CD242050282095C43B01240FBED
:20FDA000B1C0F0000A003B413C413D413E413F4100130A121D9303343DE31D53023C3CE35F
:20FDC0001C530E4D0F4C0E110F110B430C4E0D4BB0126AFE0A4C0C4F0D4BB0126AFE1F93B0
:20FDE00003340E8C0F5A023C0E5C0F8A1B532B92ED3B0C4E3A4130410F120E120D120C1271
:20FE00000B12E2B3E0011224D242E0017009E2C3E001A2C292014C43F290200001020124D5
:20FE20005C43B01240FBB1C0F0000A003B413C413D413E413F4100130F12C243830992539B
:20FE40006E09B290A0036E09032882436E09053C1F426E09D24F0002C001F2D02000C201C6
:20FE6000B1C0F00002003F4100133DF00F003DE00F000D5D005D0C110C110C110C110C11CC
:20FE80000C110C110C110C110C110C110C110C110C110C1130411C9302343CE31C530F4C01
:20FEA0001D9302343DE31D530C4D0C9F032C0E4C0C4F0F4E12C30F100F110C5F30410F1276
:20FEC000B2F0EFFFA2013F4000281F527409824FA001B1C0F00002003F4100139242DA0143
:20FEE0000A028243D801E242E001B1C0F000000000133140000AB01252FF0C43B01228FC1C
:20FF0000B01256FFE2C37A099242D2011602B1C0F00000000013D2D3E001E2C2E001B1C0F3
:20FF2000F000000000133441354136413741384139413A413041B2407701A601B1C0F00093
:1CFF4000000000131C830343FD23304132D01000FD3F1C4330410343FF3F001367
:02FFE00038FEE9
:02FFE200E2FC3F
:02FFE4005AFFC2
:02FFE600DCFE3F
:02FFE800F8FD22
:02FFEC004CFFC8
:02FFEE00E0F938
:02FFF000BEFE53
:02FFF20036FFD8
:02FFF40016FFF6
:02FFF80004FF04
:02FFFA005CFDAC
:02FFFC004CFFB8
:02FFFE00F2FE11
:00000001FF
