:1C0958008813D00720039001FA00AF000600000000FA00006400000C0000010043
:20F800000A1209120812071206120512041231800C00814D0A00914216020800564208020F
:20F8200005438143020009430A430C937A24814C0000084347431F410A004F935D200A96D9
:20F840001D2057535793122467930D247790030007246792022406430C3C5F421502083C95
:20F860005F420D02053C5F420C02023C5F420902065F4F470F5F914F160208003E402802ED
:20F88000044814530454045E0F480F5F0E5F0B4E2C4E2D44B0120CFF3A9009000C2C0F4A54
:20F8A0000F5F3F5030092E4F8F4C00000C8E0C9302343CE31C53819302001E205F421102B5
:20F8C0000F5F0F9A192C05930620819C0800142C814A060015432C4B2D44B012FCFD0C9938
:20F8E0000228094C093C0F4A1F8106001F83814F04000543914302000E4812C30E103D40EB
:20F9000028020F480F5F0F5D8F4E00000F481F530F5F0F5D8F4E000028531A539183000033
:20F920008A2305930620819302000720B2432402403C1A810600814A0400824926020C49D0
:20F9400012C30910164104001A4106000A563690FDFF1A383F402802074A07571753075769
:20F96000075F084A08580858085F264216510400054C2C482D47B012FCFD0C990528278266
:20F9800028821A831683F423098C0959058C3E424F434F5F0599022C09855F5309591E8319
:20F9A000F8230C4AB012FCFE4F4F0F110CDF824C240231500C0030408CFF0F120E120D1295
:20F9C0000C120B120A123A407701824AA601D2C36A09C29314023A201B431C423A021D4247
:20F9E0003802B0120CFF1C926E0919281F423A020F111F8238021F9302383F43013C1F43F5
:20FA0000C293700907245E4270098E110F9E02240B43023C825F6C09C24F70090F3CB250A9
:20FA200014006C09B2902D016C090628B280C8006C0912C312106E09C24370090B933C20D5
:20FA4000D2431402B2401E3F5009363CD29314023120F290030056090A24C29356090420AB
:20FA6000B24058184209153CD2835609123C1C423A021D423802B0120CFF829C68090528CA
:20FA8000824C680992536409043CE243560992836409E29356090B24C29356090D20E24386
:20FAA0001402E2D36A09B2408010D001053CD2430102023C8243F001F29003005609072C51
:20FAC0005C4207020C5C5D425609B01200F8E29314020D28D2D3E001D2C3E001B240770634
:20FAE000A6013C42B012AAFF824AA601053C5C43B0121CFCA2C29201A2D29201D2425409DA
:20FB0000E001B1C0F0000C003A413B413C413D413E413F4100130A12B240805A2001E24266
:20FB2000E001D243E201F24040000102F2403C000702F24006000402F24009000002F24053
:20FB40001A000802F2400D000902F24011000C02F24017000D02F24028001502F2401E00CD
:20FB600010023F4016023D4006003E4058092F53BF4EFEFF1D83FB23D2430502C2431102FC
:20FB8000B24080000202F2400300C201B2400002A601B2400006A601B2402802B001B240FE
:20FBA0001200B201B2407701A601B24080009001B240070092010A43023C32D058005F425A
:20FBC00001020A9F23245A4201020F4A3F8010001B243F80100018243F8020001020C2430D
:20FBE0001402E2425609B2401E1850091F426C093F500010824FF0015C43B0121CFCE24217
:20FC00005409E2C3E001023CE2D3E00132C20343C2936A09D22732D01800D13FD2D36A09F0
:20FC20001F426C093F500010824FF001F290400001024924D292070266093124D24207020D
:20FC400066095F4204020F5F3F800B005E4207020E5E0E8F3E800B00C29356090420B24011
:20FC600058184209033CB240582442090F5F0F5F0F5F3F50002C824F44093B40F84F3D406F
:20FC800046096F433EB080FF17200E5E0E5E0E5E3E50004C8D4E00005F53C24F57094C93C4
:20FCA0000420B2408210A201193CB2408610A20192425009A001123C2D538D4BFEFF5F5356
:20FCC0003E807F00DF3FB24040204209D243570992425009A001B2408610A2015F425709BD
:20FCE0000F9306243E404209B24EA4011F83FC23C29314020324B2D01800A2019243AE01B6
:20FD0000A243AE0130410F120E120D120C120B120A121D4202020A4DE29301021D20D28363
:20FD200072091A205E420502C24E72095C4207025F4207020F5F0F5F0F5F0F8C6E93082875
:20FD40000A9F062C0A5DD2837209E2937209F82F5C43B0121CFC093CB2407706A6013C4228
:20FD6000B012AAFFB2407701A601824A9001B1C0F0000C003A413B413C413D413E413F414C
:20FD800000130F125F4273090F9315241F8326241F832920B29022005209072C1F425209B2
:20FDA000DF42C101000292535209D28355091B20C2437309183C5F42C101824F5209D243B7
:20FDC0007309D24F0002C0013F9006000C20F2402400E001B2400300D801053CD242C101A6
:20FDE0005509E2437309F2D01000C201F2D02000C201B1C0F00002003F4100130A121D9308
:20FE000003343DE31D53023C3CE31C530E4D0F4C0E110F110B430C4E0D4BB012B4FE0A4C90
:20FE20000C4F0D4BB012B4FE1F9303340E8C0F5A023C0E5C0F8A1B532B92ED3B0C4E3A4146
:20FE400030410F120E120D120C120B12E2B3E0011224D242E0015409E2C3E001A2C292011B
:20FE60004C43F2902000010201245C43B0121CFCB1C0F0000A003B413C413D413E413F41CF
:20FE800000130F12C243730992535209B29030075209032882435209053C1F425209D24F30
:20FEA0000002C001F2D02000C201B1C0F00002003F4100133DF00F003DE00F000D5D005DB5
:20FEC0000C110C110C110C110C110C110C110C110C110C110C110C110C110C110C113041FE
:20FEE0003DF00F003DE00F000D5D005D0C5C0C5C0C5C0C5C0C5C0C5C0C5C0C5C0C5C0C5CC3
:20FF00000C5C0C5C0C5C0C5C0C5C30411C9302343CE31C530F4C1D9302343DE31D530C4DCB
:20FF20000C9F032C0E4C0C4F0F4E12C30F100F110C5F30410F12B2F0EFFFA2013F400028EA
:20FF40001F526409824FA001B1C0F00002003F4100139242DA010A028243D801E242E001FD
:20FF6000B1C0F000000000133140000AB012B8FF0C43B01216FBB012BCFFE2C36A0992428E
:20FF8000D2012202B1C0F000000000133441354136413741384139413A413041B2407713C1
:20FFA000A601B1C0F000000000131C830343FD23304132D01000FD3F1C4330410343FF3F0E
:02FFC00000132C
:02FFE00082FE9F
:02FFE20082FD9E
:02FFE400C0FF5C
:02FFE60052FFC8
:02FFE80042FED7
:02FFEC00B2FF62
:02FFEE00BAF95E
:02FFF00034FFDC
:02FFF2009CFF72
:02FFF400B2FF5A
:02FFF8007AFF8E
:02FFFA0006FD02
:02FFFC00B2FF52
:02FFFE0068FF9A
:00000001FF
